{
  "_format": "hh-sol-artifact-1",
  "contractName": "DegenToken",
  "sourceName": "contracts/DegenToken.sol",
  "abi": [
    {
      "inputs": [],
      "stateMutability": "nonpayable",
      "type": "constructor"
    },
    {
      "anonymous": false,
      "inputs": [
        {
          "indexed": true,
          "internalType": "address",
          "name": "owner",
          "type": "address"
        },
        {
          "indexed": true,
          "internalType": "address",
          "name": "spender",
          "type": "address"
        },
        {
          "indexed": false,
          "internalType": "uint256",
          "name": "value",
          "type": "uint256"
        }
      ],
      "name": "Approval",
      "type": "event"
    },
    {
      "anonymous": false,
      "inputs": [
        {
          "indexed": true,
          "internalType": "address",
          "name": "from",
          "type": "address"
        },
        {
          "indexed": true,
          "internalType": "address",
          "name": "to",
          "type": "address"
        },
        {
          "indexed": false,
          "internalType": "uint256",
          "name": "value",
          "type": "uint256"
        }
      ],
      "name": "Transfer",
      "type": "event"
    },
    {
      "inputs": [
        {
          "internalType": "address",
          "name": "owner",
          "type": "address"
        },
        {
          "internalType": "address",
          "name": "spender",
          "type": "address"
        }
      ],
      "name": "allowance",
      "outputs": [
        {
          "internalType": "uint256",
          "name": "",
          "type": "uint256"
        }
      ],
      "stateMutability": "view",
      "type": "function"
    },
    {
      "inputs": [
        {
          "internalType": "address",
          "name": "spender",
          "type": "address"
        },
        {
          "internalType": "uint256",
          "name": "amount",
          "type": "uint256"
        }
      ],
      "name": "approve",
      "outputs": [
        {
          "internalType": "bool",
          "name": "",
          "type": "bool"
        }
      ],
      "stateMutability": "nonpayable",
      "type": "function"
    },
    {
      "inputs": [
        {
          "internalType": "address",
          "name": "account",
          "type": "address"
        }
      ],
      "name": "balanceOf",
      "outputs": [
        {
          "internalType": "uint256",
          "name": "",
          "type": "uint256"
        }
      ],
      "stateMutability": "view",
      "type": "function"
    },
    {
      "inputs": [
        {
          "internalType": "uint256",
          "name": "_tokens",
          "type": "uint256"
        }
      ],
      "name": "burnTokens",
      "outputs": [],
      "stateMutability": "nonpayable",
      "type": "function"
    },
    {
      "inputs": [],
      "name": "checkTokenBalance",
      "outputs": [
        {
          "internalType": "uint256",
          "name": "",
          "type": "uint256"
        }
      ],
      "stateMutability": "view",
      "type": "function"
    },
    {
      "inputs": [],
      "name": "decimals",
      "outputs": [
        {
          "internalType": "uint8",
          "name": "",
          "type": "uint8"
        }
      ],
      "stateMutability": "view",
      "type": "function"
    },
    {
      "inputs": [
        {
          "internalType": "address",
          "name": "spender",
          "type": "address"
        },
        {
          "internalType": "uint256",
          "name": "subtractedValue",
          "type": "uint256"
        }
      ],
      "name": "decreaseAllowance",
      "outputs": [
        {
          "internalType": "bool",
          "name": "",
          "type": "bool"
        }
      ],
      "stateMutability": "nonpayable",
      "type": "function"
    },
    {
      "inputs": [
        {
          "internalType": "address",
          "name": "spender",
          "type": "address"
        },
        {
          "internalType": "uint256",
          "name": "addedValue",
          "type": "uint256"
        }
      ],
      "name": "increaseAllowance",
      "outputs": [
        {
          "internalType": "bool",
          "name": "",
          "type": "bool"
        }
      ],
      "stateMutability": "nonpayable",
      "type": "function"
    },
    {
      "inputs": [
        {
          "internalType": "address",
          "name": "_receiver",
          "type": "address"
        },
        {
          "internalType": "uint256",
          "name": "_tokens",
          "type": "uint256"
        }
      ],
      "name": "mintTokens",
      "outputs": [],
      "stateMutability": "nonpayable",
      "type": "function"
    },
    {
      "inputs": [],
      "name": "myPurchases",
      "outputs": [
        {
          "internalType": "string[]",
          "name": "",
          "type": "string[]"
        },
        {
          "internalType": "uint256",
          "name": "",
          "type": "uint256"
        }
      ],
      "stateMutability": "view",
      "type": "function"
    },
    {
      "inputs": [],
      "name": "name",
      "outputs": [
        {
          "internalType": "string",
          "name": "",
          "type": "string"
        }
      ],
      "stateMutability": "view",
      "type": "function"
    },
    {
      "inputs": [],
      "name": "owner",
      "outputs": [
        {
          "internalType": "address",
          "name": "",
          "type": "address"
        }
      ],
      "stateMutability": "view",
      "type": "function"
    },
    {
      "inputs": [
        {
          "internalType": "uint256",
          "name": "_ch",
          "type": "uint256"
        }
      ],
      "name": "redeemTokens",
      "outputs": [],
      "stateMutability": "nonpayable",
      "type": "function"
    },
    {
      "inputs": [],
      "name": "shopItems",
      "outputs": [
        {
          "internalType": "string",
          "name": "",
          "type": "string"
        }
      ],
      "stateMutability": "pure",
      "type": "function"
    },
    {
      "inputs": [],
      "name": "symbol",
      "outputs": [
        {
          "internalType": "string",
          "name": "",
          "type": "string"
        }
      ],
      "stateMutability": "view",
      "type": "function"
    },
    {
      "inputs": [],
      "name": "tokenName",
      "outputs": [
        {
          "internalType": "string",
          "name": "",
          "type": "string"
        }
      ],
      "stateMutability": "view",
      "type": "function"
    },
    {
      "inputs": [],
      "name": "tokenSymbol",
      "outputs": [
        {
          "internalType": "string",
          "name": "",
          "type": "string"
        }
      ],
      "stateMutability": "view",
      "type": "function"
    },
    {
      "inputs": [],
      "name": "totalSupply",
      "outputs": [
        {
          "internalType": "uint256",
          "name": "",
          "type": "uint256"
        }
      ],
      "stateMutability": "view",
      "type": "function"
    },
    {
      "inputs": [
        {
          "internalType": "address",
          "name": "to",
          "type": "address"
        },
        {
          "internalType": "uint256",
          "name": "amount",
          "type": "uint256"
        }
      ],
      "name": "transfer",
      "outputs": [
        {
          "internalType": "bool",
          "name": "",
          "type": "bool"
        }
      ],
      "stateMutability": "nonpayable",
      "type": "function"
    },
    {
      "inputs": [
        {
          "internalType": "address",
          "name": "from",
          "type": "address"
        },
        {
          "internalType": "address",
          "name": "to",
          "type": "address"
        },
        {
          "internalType": "uint256",
          "name": "amount",
          "type": "uint256"
        }
      ],
      "name": "transferFrom",
      "outputs": [
        {
          "internalType": "bool",
          "name": "",
          "type": "bool"
        }
      ],
      "stateMutability": "nonpayable",
      "type": "function"
    },
    {
      "inputs": [
        {
          "internalType": "address",
          "name": "_reciever",
          "type": "address"
        },
        {
          "internalType": "uint256",
          "name": "_tokens",
          "type": "uint256"
        }
      ],
      "name": "transferTokens",
      "outputs": [],
      "stateMutability": "nonpayable",
      "type": "function"
    }
  ],
  "bytecode": "0x60806040526040518060400160405280600b81526020017f444547454e20544f4b454e000000000000000000000000000000000000000000815250600590816200004a919062000638565b506040518060400160405280600381526020017f44474e00000000000000000000000000000000000000000000000000000000008152506006908162000091919062000638565b503480156200009f57600080fd5b5060058054620000af9062000427565b80601f0160208091040260200160405190810160405280929190818152602001828054620000dd9062000427565b80156200012e5780601f1062000102576101008083540402835291602001916200012e565b820191906000526020600020905b8154815290600101906020018083116200011057829003601f168201915b505050505060068054620001429062000427565b80601f0160208091040260200160405190810160405280929190818152602001828054620001709062000427565b8015620001c15780601f106200019557610100808354040283529160200191620001c1565b820191906000526020600020905b815481529060010190602001808311620001a357829003601f168201915b50505050508160039081620001d7919062000638565b508060049081620001e9919062000638565b50505062000200336113886200024760201b60201c565b33600860006101000a81548173ffffffffffffffffffffffffffffffffffffffff021916908373ffffffffffffffffffffffffffffffffffffffff1602179055506200083a565b600073ffffffffffffffffffffffffffffffffffffffff168273ffffffffffffffffffffffffffffffffffffffff1603620002b9576040517f08c379a0000000000000000000000000000000000000000000000000000000008152600401620002b09062000780565b60405180910390fd5b620002cd60008383620003b460201b60201c565b8060026000828254620002e19190620007d1565b92505081905550806000808473ffffffffffffffffffffffffffffffffffffffff1673ffffffffffffffffffffffffffffffffffffffff168152602001908152602001600020600082825401925050819055508173ffffffffffffffffffffffffffffffffffffffff16600073ffffffffffffffffffffffffffffffffffffffff167fddf252ad1be2c89b69c2b068fc378daa952ba7f163c4a11628f55a4df523b3ef836040516200039491906200081d565b60405180910390a3620003b060008383620003b960201b60201c565b5050565b505050565b505050565b600081519050919050565b7f4e487b7100000000000000000000000000000000000000000000000000000000600052604160045260246000fd5b7f4e487b7100000000000000000000000000000000000000000000000000000000600052602260045260246000fd5b600060028204905060018216806200044057607f821691505b602082108103620004565762000455620003f8565b5b50919050565b60008190508160005260206000209050919050565b60006020601f8301049050919050565b600082821b905092915050565b600060088302620004c07fffffffffffffffffffffffffffffffffffffffffffffffffffffffffffffffff8262000481565b620004cc868362000481565b95508019841693508086168417925050509392505050565b6000819050919050565b6000819050919050565b600062000519620005136200050d84620004e4565b620004ee565b620004e4565b9050919050565b6000819050919050565b6200053583620004f8565b6200054d620005448262000520565b8484546200048e565b825550505050565b600090565b6200056462000555565b620005718184846200052a565b505050565b5b8181101562000599576200058d6000826200055a565b60018101905062000577565b5050565b601f821115620005e857620005b2816200045c565b620005bd8462000471565b81016020851015620005cd578190505b620005e5620005dc8562000471565b83018262000576565b50505b505050565b600082821c905092915050565b60006200060d60001984600802620005ed565b1980831691505092915050565b6000620006288383620005fa565b9150826002028217905092915050565b6200064382620003be565b67ffffffffffffffff8111156200065f576200065e620003c9565b5b6200066b825462000427565b620006788282856200059d565b600060209050601f831160018114620006b057600084156200069b578287015190505b620006a785826200061a565b86555062000717565b601f198416620006c0866200045c565b60005b82811015620006ea57848901518255600182019150602085019450602081019050620006c3565b868310156200070a578489015162000706601f891682620005fa565b8355505b6001600288020188555050505b505050505050565b600082825260208201905092915050565b7f45524332303a206d696e7420746f20746865207a65726f206164647265737300600082015250565b600062000768601f836200071f565b9150620007758262000730565b602082019050919050565b600060208201905081810360008301526200079b8162000759565b9050919050565b7f4e487b7100000000000000000000000000000000000000000000000000000000600052601160045260246000fd5b6000620007de82620004e4565b9150620007eb83620004e4565b9250828201905080821115620008065762000805620007a2565b5b92915050565b6200081781620004e4565b82525050565b60006020820190506200083460008301846200080c565b92915050565b612aad806200084a6000396000f3fe608060405234801561001057600080fd5b50600436106101375760003560e01c806370a08231116100b8578063a457c2d71161007c578063a457c2d714610345578063a6e158f814610375578063a9059cbb14610391578063bec3fa17146103c1578063dd62ed3e146103dd578063f0dda65c1461040d57610137565b806370a082311461029c5780637b61c320146102cc5780638af8a986146102ea5780638da5cb5b1461030957806395d89b411461032757610137565b8063313ce567116100ff578063313ce567146101f657806339509351146102145780634f731087146102445780636c02a931146102625780636d1b229d1461028057610137565b806306fdde031461013c57806308514a411461015a578063095ea7b31461017857806318160ddd146101a857806323b872dd146101c6575b600080fd5b610144610429565b6040516101519190611962565b60405180910390f35b6101626104bb565b60405161016f9190611962565b60405180910390f35b610192600480360381019061018d9190611a1d565b6104db565b60405161019f9190611a78565b60405180910390f35b6101b06104fe565b6040516101bd9190611aa2565b60405180910390f35b6101e060048036038101906101db9190611abd565b610508565b6040516101ed9190611a78565b60405180910390f35b6101fe610537565b60405161020b9190611b2c565b60405180910390f35b61022e60048036038101906102299190611a1d565b610540565b60405161023b9190611a78565b60405180910390f35b61024c610577565b6040516102599190611aa2565b60405180910390f35b61026a610587565b6040516102779190611962565b60405180910390f35b61029a60048036038101906102959190611b47565b610615565b005b6102b660048036038101906102b19190611b74565b61066d565b6040516102c39190611aa2565b60405180910390f35b6102d46106b5565b6040516102e19190611962565b60405180910390f35b6102f2610743565b604051610300929190611cad565b60405180910390f35b6103116108ec565b60405161031e9190611cec565b60405180910390f35b61032f610912565b60405161033c9190611962565b60405180910390f35b61035f600480360381019061035a9190611a1d565b6109a4565b60405161036c9190611a78565b60405180910390f35b61038f600480360381019061038a9190611b47565b610a1b565b005b6103ab60048036038101906103a69190611a1d565b610e7e565b6040516103b89190611a78565b60405180910390f35b6103db60048036038101906103d69190611a1d565b610ea1565b005b6103f760048036038101906103f29190611d07565b610efb565b6040516104049190611aa2565b60405180910390f35b61042760048036038101906104229190611a1d565b610f82565b005b60606003805461043890611d76565b80601f016020809104026020016040519081016040528092919081815260200182805461046490611d76565b80156104b15780601f10610486576101008083540402835291602001916104b1565b820191906000526020600020905b81548152906001019060200180831161049457829003601f168201915b5050505050905090565b6060604051806080016040528060608152602001612a1860609139905090565b6000806104e66110d2565b90506104f38185856110da565b600191505092915050565b6000600254905090565b6000806105136110d2565b90506105208582856112a3565b61052b85858561132f565b60019150509392505050565b60006012905090565b60008061054b6110d2565b905061056c81858561055d8589610efb565b6105679190611dd6565b6110da565b600191505092915050565b60006105823361066d565b905090565b6005805461059490611d76565b80601f01602080910402602001604051908101604052809291908181526020018280546105c090611d76565b801561060d5780601f106105e25761010080835404028352916020019161060d565b820191906000526020600020905b8154815290600101906020018083116105f057829003601f168201915b505050505081565b8061061f3361066d565b1015610660576040517f08c379a000000000000000000000000000000000000000000000000000000000815260040161065790611e56565b60405180910390fd5b61066a33826115a5565b50565b60008060008373ffffffffffffffffffffffffffffffffffffffff1673ffffffffffffffffffffffffffffffffffffffff168152602001908152602001600020549050919050565b600680546106c290611d76565b80601f01602080910402602001604051908101604052809291908181526020018280546106ee90611d76565b801561073b5780601f106107105761010080835404028352916020019161073b565b820191906000526020600020905b81548152906001019060200180831161071e57829003601f168201915b505050505081565b6060600080600760003373ffffffffffffffffffffffffffffffffffffffff1673ffffffffffffffffffffffffffffffffffffffff168152602001908152602001600020805490509050600081116107d0576040517f08c379a00000000000000000000000000000000000000000000000000000000081526004016107c790611ee8565b60405180910390fd5b600760003373ffffffffffffffffffffffffffffffffffffffff1673ffffffffffffffffffffffffffffffffffffffff1681526020019081526020016000208181805480602002602001604051908101604052809291908181526020016000905b828210156108dd57838290600052602060002001805461085090611d76565b80601f016020809104026020016040519081016040528092919081815260200182805461087c90611d76565b80156108c95780601f1061089e576101008083540402835291602001916108c9565b820191906000526020600020905b8154815290600101906020018083116108ac57829003601f168201915b505050505081526020019060010190610831565b50505050915092509250509091565b600860009054906101000a900473ffffffffffffffffffffffffffffffffffffffff1681565b60606004805461092190611d76565b80601f016020809104026020016040519081016040528092919081815260200182805461094d90611d76565b801561099a5780601f1061096f5761010080835404028352916020019161099a565b820191906000526020600020905b81548152906001019060200180831161097d57829003601f168201915b5050505050905090565b6000806109af6110d2565b905060006109bd8286610efb565b905083811015610a02576040517f08c379a00000000000000000000000000000000000000000000000000000000081526004016109f990611f7a565b60405180910390fd5b610a0f82868684036110da565b60019250505092915050565b6004811115610a5f576040517f08c379a0000000000000000000000000000000000000000000000000000000008152600401610a5690611fe6565b60405180910390fd5b60018103610b69576102bc610a733361066d565b1015610ab4576040517f08c379a0000000000000000000000000000000000000000000000000000000008152600401610aab90612052565b60405180910390fd5b610ac0336102bc6115a5565b600760003373ffffffffffffffffffffffffffffffffffffffff1673ffffffffffffffffffffffffffffffffffffffff16815260200190815260200160002080600181540180825580915050600190039060005260206000200160006040518060400160405280600a81526020017f44494c554320534b494e0000000000000000000000000000000000000000000081525090919091509081610b63919061224d565b50610e7b565b60028103610c73576101f4610b7d3361066d565b1015610bbe576040517f08c379a0000000000000000000000000000000000000000000000000000000008152600401610bb590612052565b60405180910390fd5b610bca336101f46115a5565b600760003373ffffffffffffffffffffffffffffffffffffffff1673ffffffffffffffffffffffffffffffffffffffff16815260200190815260200160002080600181540180825580915050600190039060005260206000200160006040518060400160405280600a81526020017f4159414b4120534b494e0000000000000000000000000000000000000000000081525090919091509081610c6d919061224d565b50610e7a565b60038103610d7b5760a0610c863361066d565b1015610cc7576040517f08c379a0000000000000000000000000000000000000000000000000000000008152600401610cbe90612052565b60405180910390fd5b610cd23360a06115a5565b600760003373ffffffffffffffffffffffffffffffffffffffff1673ffffffffffffffffffffffffffffffffffffffff16815260200190815260200160002080600181540180825580915050600190039060005260206000200160006040518060400160405280600b81526020017f53494e474c452050554c4c00000000000000000000000000000000000000000081525090919091509081610d75919061224d565b50610e79565b61015e610d873361066d565b1015610dc8576040517f08c379a0000000000000000000000000000000000000000000000000000000008152600401610dbf90612052565b60405180910390fd5b610dd43361015e6115a5565b600760003373ffffffffffffffffffffffffffffffffffffffff1673ffffffffffffffffffffffffffffffffffffffff16815260200190815260200160002080600181540180825580915050600190039060005260206000200160006040518060400160405280600a81526020017f4d554c54492050554c4c0000000000000000000000000000000000000000000081525090919091509081610e77919061224d565b505b5b5b50565b600080610e896110d2565b9050610e9681858561132f565b600191505092915050565b80610eab3361066d565b1015610eec576040517f08c379a0000000000000000000000000000000000000000000000000000000008152600401610ee390612391565b60405180910390fd5b610ef68282610e7e565b505050565b6000600160008473ffffffffffffffffffffffffffffffffffffffff1673ffffffffffffffffffffffffffffffffffffffff16815260200190815260200160002060008373ffffffffffffffffffffffffffffffffffffffff1673ffffffffffffffffffffffffffffffffffffffff16815260200190815260200160002054905092915050565b600860009054906101000a900473ffffffffffffffffffffffffffffffffffffffff1673ffffffffffffffffffffffffffffffffffffffff163373ffffffffffffffffffffffffffffffffffffffff1614611012576040517f08c379a000000000000000000000000000000000000000000000000000000000815260040161100990612423565b60405180910390fd5b600073ffffffffffffffffffffffffffffffffffffffff168273ffffffffffffffffffffffffffffffffffffffff1603611081576040517f08c379a00000000000000000000000000000000000000000000000000000000081526004016110789061248f565b60405180910390fd5b600081116110c4576040517f08c379a00000000000000000000000000000000000000000000000000000000081526004016110bb90612521565b60405180910390fd5b6110ce8282611772565b5050565b600033905090565b600073ffffffffffffffffffffffffffffffffffffffff168373ffffffffffffffffffffffffffffffffffffffff1603611149576040517f08c379a0000000000000000000000000000000000000000000000000000000008152600401611140906125b3565b60405180910390fd5b600073ffffffffffffffffffffffffffffffffffffffff168273ffffffffffffffffffffffffffffffffffffffff16036111b8576040517f08c379a00000000000000000000000000000000000000000000000000000000081526004016111af90612645565b60405180910390fd5b80600160008573ffffffffffffffffffffffffffffffffffffffff1673ffffffffffffffffffffffffffffffffffffffff16815260200190815260200160002060008473ffffffffffffffffffffffffffffffffffffffff1673ffffffffffffffffffffffffffffffffffffffff168152602001908152602001600020819055508173ffffffffffffffffffffffffffffffffffffffff168373ffffffffffffffffffffffffffffffffffffffff167f8c5be1e5ebec7d5bd14f71427d1e84f3dd0314c0f7b2291e5b200ac8c7c3b925836040516112969190611aa2565b60405180910390a3505050565b60006112af8484610efb565b90507fffffffffffffffffffffffffffffffffffffffffffffffffffffffffffffffff8114611329578181101561131b576040517f08c379a0000000000000000000000000000000000000000000000000000000008152600401611312906126b1565b60405180910390fd5b61132884848484036110da565b5b50505050565b600073ffffffffffffffffffffffffffffffffffffffff168373ffffffffffffffffffffffffffffffffffffffff160361139e576040517f08c379a000000000000000000000000000000000000000000000000000000000815260040161139590612743565b60405180910390fd5b600073ffffffffffffffffffffffffffffffffffffffff168273ffffffffffffffffffffffffffffffffffffffff160361140d576040517f08c379a0000000000000000000000000000000000000000000000000000000008152600401611404906127d5565b60405180910390fd5b6114188383836118c8565b60008060008573ffffffffffffffffffffffffffffffffffffffff1673ffffffffffffffffffffffffffffffffffffffff1681526020019081526020016000205490508181101561149e576040517f08c379a000000000000000000000000000000000000000000000000000000000815260040161149590612867565b60405180910390fd5b8181036000808673ffffffffffffffffffffffffffffffffffffffff1673ffffffffffffffffffffffffffffffffffffffff16815260200190815260200160002081905550816000808573ffffffffffffffffffffffffffffffffffffffff1673ffffffffffffffffffffffffffffffffffffffff168152602001908152602001600020600082825401925050819055508273ffffffffffffffffffffffffffffffffffffffff168473ffffffffffffffffffffffffffffffffffffffff167fddf252ad1be2c89b69c2b068fc378daa952ba7f163c4a11628f55a4df523b3ef8460405161158c9190611aa2565b60405180910390a361159f8484846118cd565b50505050565b600073ffffffffffffffffffffffffffffffffffffffff168273ffffffffffffffffffffffffffffffffffffffff1603611614576040517f08c379a000000000000000000000000000000000000000000000000000000000815260040161160b906128f9565b60405180910390fd5b611620826000836118c8565b60008060008473ffffffffffffffffffffffffffffffffffffffff1673ffffffffffffffffffffffffffffffffffffffff168152602001908152602001600020549050818110156116a6576040517f08c379a000000000000000000000000000000000000000000000000000000000815260040161169d9061298b565b60405180910390fd5b8181036000808573ffffffffffffffffffffffffffffffffffffffff1673ffffffffffffffffffffffffffffffffffffffff1681526020019081526020016000208190555081600260008282540392505081905550600073ffffffffffffffffffffffffffffffffffffffff168373ffffffffffffffffffffffffffffffffffffffff167fddf252ad1be2c89b69c2b068fc378daa952ba7f163c4a11628f55a4df523b3ef846040516117599190611aa2565b60405180910390a361176d836000846118cd565b505050565b600073ffffffffffffffffffffffffffffffffffffffff168273ffffffffffffffffffffffffffffffffffffffff16036117e1576040517f08c379a00000000000000000000000000000000000000000000000000000000081526004016117d8906129f7565b60405180910390fd5b6117ed600083836118c8565b80600260008282546117ff9190611dd6565b92505081905550806000808473ffffffffffffffffffffffffffffffffffffffff1673ffffffffffffffffffffffffffffffffffffffff168152602001908152602001600020600082825401925050819055508173ffffffffffffffffffffffffffffffffffffffff16600073ffffffffffffffffffffffffffffffffffffffff167fddf252ad1be2c89b69c2b068fc378daa952ba7f163c4a11628f55a4df523b3ef836040516118b09190611aa2565b60405180910390a36118c4600083836118cd565b5050565b505050565b505050565b600081519050919050565b600082825260208201905092915050565b60005b8381101561190c5780820151818401526020810190506118f1565b60008484015250505050565b6000601f19601f8301169050919050565b6000611934826118d2565b61193e81856118dd565b935061194e8185602086016118ee565b61195781611918565b840191505092915050565b6000602082019050818103600083015261197c8184611929565b905092915050565b600080fd5b600073ffffffffffffffffffffffffffffffffffffffff82169050919050565b60006119b482611989565b9050919050565b6119c4816119a9565b81146119cf57600080fd5b50565b6000813590506119e1816119bb565b92915050565b6000819050919050565b6119fa816119e7565b8114611a0557600080fd5b50565b600081359050611a17816119f1565b92915050565b60008060408385031215611a3457611a33611984565b5b6000611a42858286016119d2565b9250506020611a5385828601611a08565b9150509250929050565b60008115159050919050565b611a7281611a5d565b82525050565b6000602082019050611a8d6000830184611a69565b92915050565b611a9c816119e7565b82525050565b6000602082019050611ab76000830184611a93565b92915050565b600080600060608486031215611ad657611ad5611984565b5b6000611ae4868287016119d2565b9350506020611af5868287016119d2565b9250506040611b0686828701611a08565b9150509250925092565b600060ff82169050919050565b611b2681611b10565b82525050565b6000602082019050611b416000830184611b1d565b92915050565b600060208284031215611b5d57611b5c611984565b5b6000611b6b84828501611a08565b91505092915050565b600060208284031215611b8a57611b89611984565b5b6000611b98848285016119d2565b91505092915050565b600081519050919050565b600082825260208201905092915050565b6000819050602082019050919050565b600082825260208201905092915050565b6000611be9826118d2565b611bf38185611bcd565b9350611c038185602086016118ee565b611c0c81611918565b840191505092915050565b6000611c238383611bde565b905092915050565b6000602082019050919050565b6000611c4382611ba1565b611c4d8185611bac565b935083602082028501611c5f85611bbd565b8060005b85811015611c9b5784840389528151611c7c8582611c17565b9450611c8783611c2b565b925060208a01995050600181019050611c63565b50829750879550505050505092915050565b60006040820190508181036000830152611cc78185611c38565b9050611cd66020830184611a93565b9392505050565b611ce6816119a9565b82525050565b6000602082019050611d016000830184611cdd565b92915050565b60008060408385031215611d1e57611d1d611984565b5b6000611d2c858286016119d2565b9250506020611d3d858286016119d2565b9150509250929050565b7f4e487b7100000000000000000000000000000000000000000000000000000000600052602260045260246000fd5b60006002820490506001821680611d8e57607f821691505b602082108103611da157611da0611d47565b5b50919050565b7f4e487b7100000000000000000000000000000000000000000000000000000000600052601160045260246000fd5b6000611de1826119e7565b9150611dec836119e7565b9250828201905080821115611e0457611e03611da7565b5b92915050565b7f596f7520646f6e2774206861766520656e6f75676820746f6b656e7321000000600082015250565b6000611e40601d836118dd565b9150611e4b82611e0a565b602082019050919050565b60006020820190508181036000830152611e6f81611e33565b9050919050565b7f4e6f2070757263686173657320666f756e6420666f722074686973206164647260008201527f6573730000000000000000000000000000000000000000000000000000000000602082015250565b6000611ed26023836118dd565b9150611edd82611e76565b604082019050919050565b60006020820190508181036000830152611f0181611ec5565b9050919050565b7f45524332303a2064656372656173656420616c6c6f77616e63652062656c6f7760008201527f207a65726f000000000000000000000000000000000000000000000000000000602082015250565b6000611f646025836118dd565b9150611f6f82611f08565b604082019050919050565b60006020820190508181036000830152611f9381611f57565b9050919050565b7f57726f6e67206f7074696f6e2073656c65637465642100000000000000000000600082015250565b6000611fd06016836118dd565b9150611fdb82611f9a565b602082019050919050565b60006020820190508181036000830152611fff81611fc3565b9050919050565b7f4f6f70732120496e73756666696369656e7420546f6b656e7300000000000000600082015250565b600061203c6019836118dd565b915061204782612006565b602082019050919050565b6000602082019050818103600083015261206b8161202f565b9050919050565b7f4e487b7100000000000000000000000000000000000000000000000000000000600052604160045260246000fd5b60008190508160005260206000209050919050565b60006020601f8301049050919050565b600082821b905092915050565b6000600883026121037fffffffffffffffffffffffffffffffffffffffffffffffffffffffffffffffff826120c6565b61210d86836120c6565b95508019841693508086168417925050509392505050565b6000819050919050565b600061214a612145612140846119e7565b612125565b6119e7565b9050919050565b6000819050919050565b6121648361212f565b61217861217082612151565b8484546120d3565b825550505050565b600090565b61218d612180565b61219881848461215b565b505050565b5b818110156121bc576121b1600082612185565b60018101905061219e565b5050565b601f821115612201576121d2816120a1565b6121db846120b6565b810160208510156121ea578190505b6121fe6121f6856120b6565b83018261219d565b50505b505050565b600082821c905092915050565b600061222460001984600802612206565b1980831691505092915050565b600061223d8383612213565b9150826002028217905092915050565b612256826118d2565b67ffffffffffffffff81111561226f5761226e612072565b5b6122798254611d76565b6122848282856121c0565b600060209050601f8311600181146122b757600084156122a5578287015190505b6122af8582612231565b865550612317565b601f1984166122c5866120a1565b60005b828110156122ed578489015182556001820191506020850194506020810190506122c8565b8683101561230a5784890151612306601f891682612213565b8355505b6001600288020188555050505b505050505050565b7f536f7272792c206e6f7420656e6f7567682062616c616e636520696e2077616c60008201527f6c65742e00000000000000000000000000000000000000000000000000000000602082015250565b600061237b6024836118dd565b91506123868261231f565b604082019050919050565b600060208201905081810360008301526123aa8161236e565b9050919050565b7f536f72727921206f6e6c79206f776e65722063616e206d696e7420746f6b656e60008201527f7321000000000000000000000000000000000000000000000000000000000000602082015250565b600061240d6022836118dd565b9150612418826123b1565b604082019050919050565b6000602082019050818103600083015261243c81612400565b9050919050565b7f54686973206164647265737320646f65736e2774206578697374000000000000600082015250565b6000612479601a836118dd565b915061248482612443565b602082019050919050565b600060208201905081810360008301526124a88161246c565b9050919050565b7f596f752063616e2774206d696e74206e65676174697665206e756d626572206f60008201527f6620746f6b656e73000000000000000000000000000000000000000000000000602082015250565b600061250b6028836118dd565b9150612516826124af565b604082019050919050565b6000602082019050818103600083015261253a816124fe565b9050919050565b7f45524332303a20617070726f76652066726f6d20746865207a65726f2061646460008201527f7265737300000000000000000000000000000000000000000000000000000000602082015250565b600061259d6024836118dd565b91506125a882612541565b604082019050919050565b600060208201905081810360008301526125cc81612590565b9050919050565b7f45524332303a20617070726f766520746f20746865207a65726f20616464726560008201527f7373000000000000000000000000000000000000000000000000000000000000602082015250565b600061262f6022836118dd565b915061263a826125d3565b604082019050919050565b6000602082019050818103600083015261265e81612622565b9050919050565b7f45524332303a20696e73756666696369656e7420616c6c6f77616e6365000000600082015250565b600061269b601d836118dd565b91506126a682612665565b602082019050919050565b600060208201905081810360008301526126ca8161268e565b9050919050565b7f45524332303a207472616e736665722066726f6d20746865207a65726f20616460008201527f6472657373000000000000000000000000000000000000000000000000000000602082015250565b600061272d6025836118dd565b9150612738826126d1565b604082019050919050565b6000602082019050818103600083015261275c81612720565b9050919050565b7f45524332303a207472616e7366657220746f20746865207a65726f206164647260008201527f6573730000000000000000000000000000000000000000000000000000000000602082015250565b60006127bf6023836118dd565b91506127ca82612763565b604082019050919050565b600060208201905081810360008301526127ee816127b2565b9050919050565b7f45524332303a207472616e7366657220616d6f756e742065786365656473206260008201527f616c616e63650000000000000000000000000000000000000000000000000000602082015250565b60006128516026836118dd565b915061285c826127f5565b604082019050919050565b6000602082019050818103600083015261288081612844565b9050919050565b7f45524332303a206275726e2066726f6d20746865207a65726f2061646472657360008201527f7300000000000000000000000000000000000000000000000000000000000000602082015250565b60006128e36021836118dd565b91506128ee82612887565b604082019050919050565b60006020820190508181036000830152612912816128d6565b9050919050565b7f45524332303a206275726e20616d6f756e7420657863656564732062616c616e60008201527f6365000000000000000000000000000000000000000000000000000000000000602082015250565b60006129756022836118dd565b915061298082612919565b604082019050919050565b600060208201905081810360008301526129a481612968565b9050919050565b7f45524332303a206d696e7420746f20746865207a65726f206164647265737300600082015250565b60006129e1601f836118dd565b91506129ec826129ab565b602082019050919050565b60006020820190508181036000830152612a10816129d4565b905091905056fe312e2044494c554320534b494e205b3730302044474e5d20322e204159414b4120534b494e205b3530302044474e5d20332e2053494e474c452050554c4c205b3136302044474e5d20342e204d554c54492050554c4c205b3335302044474e5da26469706673582212206910f672a0e0d7703b54ccaf4db251d5a4c144258bcaeb4c5b04f7101615cb0964736f6c63430008120033",
  "linkReferences": {},
  "deployedLinkReferences": {}
}